:020000040800F2
:1000000020B300207D530008F1020008F30200082D
:10001000F7020008FB020008FF02000800000000D1
:1000200000000000000000000000000003030008C2
:10003000050300080000000007030008090300088A
:1000400097530008975300089753000897530008E8
:1000500097530008975300089753000897530008D8
:1000600097530008975300089753000897530008C8
:1000700097530008975300089753000897530008B8
:1000800097530008975300089753000897530008A8
:100090009753000897530008975300089753000898
:1000A0009753000897530008975300089753000888
:1000B0009753000897530008817800089753000869
:1000C0009753000897530008975300089753000868
:1000D00097530008F35200089753000897530008FD
:1000E0009753000897530008975300089753000848
:1000F0009753000897530008975300089753000838
:100100009753000897530008975300089753000827
:100110009753000897530008975300089753000817
:100120009753000897530008975300089753000807
:1001300000F002F800F06BF80AA090E8000C82448E
:100140008344AAF10107DA4501D100F060F8AFF26B
:10015000090EBAE80F0013F0010F18BFFB1A43F0A5
:10016000010318479C2D0200BC2D02000A444FF0E9
:10017000000C10F8013B13F0070408BF10F8014B06
:100180001D1108BF10F8015B641E05D010F8016B4B
:10019000641E01F8016BF9D113F0080F1EBF10F8AF
:1001A000014BAD1C0C1B09D16D1E58BF01F801CBD2
:1001B000FAD505E014F8016B01F8016B6D1EF9D555
:1001C0009142D6D37047000000230024002500266A
:1001D000103A28BF78C1FBD8520728BF30C148BFAA
:1001E0000B607047642908F09981752908F09681A1
:1001F000782908F0CF81632908F04183732908F03A
:100200004683002070471FB51FBD10B510BD08F014
:1002100059FB1146FFF7F7FF00F014F808F077FBE1
:1002200003B4FFF7F2FF03BC05F008F8284B1B6886
:100230000360274B1B1D1B680B60254B08331B6895
:100240001360704786B004F08FFF4FF4A06005F094
:10025000B5F84FF4E13005F000F800F047F900F090
:100260006BF901F068F804F0F3FE002007F0C3F822
:10027000012007F0C0F84FF478401649088016A016
:1002800030214FF4A0731A46CDE9001050212820E8
:1002900004F0ABFE1F21002007F06FF9044616E0C2
:1002A00003AA04A905A8FFF7C1FF039800900DA1B8
:1002B0002046DDE9043208F0CDF8102023234FF466
:1002C000A0721946CDE900040A2004F08EFEE7E78B
:1002D000E8F7FF1F16000020524144494F20544FB9
:1002E00059530000534E3A255820255820255800D0
:1002F000704700BFFEE700BFFEE700BFFEE700BF9C
:10030000FEE7704770477047704700000CB500204B
:10031000019000906C48006840F480306A490860A1
:1003200000BF6948006800F4003000900198401C4C
:100330000190009818B90198B0F5A06FF1D162480A
:10034000006800F4003010B10120009001E00020AE
:1003500000900098012843D15C48006840F01000EC
:100360005A4908600846006820F003000860084603
:10037000006840F0020008605348406852494860F5
:100380000846406848600846406840F4806048601D
:100390000846406820F47C1048600846406840F4F5
:1003A000E81048600846006840F08070086000BFB0
:1003B0004548006800F000700028F9D042484068C5
:1003C00020F00300404948600846406840F00200C1
:1003D000486000BF3C48406800F00C000828F9D194
:1003E0000CBD10B5FFF792FF10BD10B53648006880
:1003F00040F001003449086008464068344908402C
:100400003149486008460068324908402E49086072
:100410000846006820F4802008600846406820F400
:10042000FE0048604FF41F008860FFF7DAFF4FF0CE
:1004300000602949086010BD10B50021002000228D
:10044000214B5B6803F00C0121B1042906D0082977
:1004500028D107E0214B224C236027E01F4B204C82
:10046000236023E0184B5B6803F47010164B5B6845
:1004700003F48032022303EB904022B9194B43432B
:10048000174C23600DE0104B5B6803F4003323B17D
:10049000144B4343124C236003E0104B4343104C76
:1004A000236003E00D4B0E4C236000BF00BF064BE2
:1004B0005B68C3F303130C4CE15C094B1B68CB4036
:1004C000074C236010BD00000010024000200240D5
:1004D0000000FFF8FFFFF6FE08ED00E000127A00D2
:1004E0000000002000093D000400002008B50121A3
:1004F000482005F0F3FD2020ADF8000010208DF815
:10050000030003208DF802006946094805F02AFB24
:100510002021074805F0D3FB2020ADF800006946F4
:10052000044805F01FFB2021024805F0C8FB08BD68
:10053000000C01400018014008B50121442005F0DD
:10054000CDFD1C20ADF8000048208DF80300694661
:10055000354805F007FB0120ADF8000028208DF894
:1005600003006946314805F0FDFA08BD10B50446A0
:1005700014B101202E4908702D480078002837D08A
:100580001021294805F081FB78B10821264805F0A3
:100590007CFB50B10421244805F077FB28B10121F0
:1005A000224805F072FB012822D10A2004F019FE2E
:1005B00000201F49087010211B4805F066FB08B990
:1005C000012010BD0821184805F05FFB08B9022082
:1005D000F7E70421144805F058FB08B90320F0E7B9
:1005E0000121124805F051FB01281BD10420E8E746
:1005F00010210D4805F049FB012813D108210A48B4
:1006000005F043FB01280DD10421074805F03DFB0F
:10061000012807D10121054805F037FB10B9012059
:10062000034908700020CCE7001801400008014091
:1006300014000020F74908807047F649891C08809B
:10064000704708B5F348801C00880090BDF8000092
:1006500008BDF04A1080921C1180704710B5044606
:100660002046FFF7E7FF052004F097FDFFF7E9FFBD
:1006700010BDE9480089E74908807047E549891CB1
:100680000880704730B5014601F01F04C1F34513DF
:10069000CA0AE50205EB43151544A8B230BD00BFF8
:1006A000011EA0F10102D0B2FAD1704710B5034685
:1006B0000C46D948808849F24131884205D0D64855
:1006C000808845F21031884214D1D3494889FFF718
:1006D000B1FF1812FFF7B1FFD8B2FFF7AEFFCE4956
:1006E0008889FFF7A7FF2012FFF7A7FFE0B2FFF707
:1006F000A4FFABE0C848808846F6040188421DD1BB
:10070000C5488079012804D1C3480088401EC01A1A
:1007100083B2C1494889FFF78DFF1812FFF78DFF9B
:10072000D8B2FFF78AFFBC498889FFF783FF201200
:10073000FFF783FFE0B2FFF780FF87E0B6488088CD
:1007400041F66311884247D1B3488079A8B9B248CD
:100750000088401EC01A83B2AF494889FFF76AFF7C
:100760000020FFF76AFF0020FFF767FF1812FFF76E
:1007700064FFD8B2FFF761FF16E0A7494889FFF789
:1007800059FF1812FFF759FFD8B2FFF756FFA249D9
:100790000988491EC1F30F20FFF74FFF9E490978D2
:1007A000491EC8B2FFF749FF9B498889FFF742FFFE
:1007B0002012FFF742FFE0B2FFF73FFF964949885A
:1007C000491EC1F30F20FFF738FF93498978491E6E
:1007D000C8B2FFF732FF39E08F48808845F21051E8
:1007E000884220D18C494889FFF724FF1812FFF76F
:1007F00024FF89494989491C88B2FFF71BFFD8B2F9
:10080000FFF71BFF84498889FFF714FF2012FFF7C9
:1008100014FF81498989491C88B2FFF70BFFE0B2B8
:10082000FFF70BFF12E07C488079012804D17A4859
:100830000088401EC01A83B2774948891946FFF7DD
:1008400008FF754988892146FFF703FF10BD2DE990
:10085000F04105460E4600240027A0466E48008859
:10086000A84203DD6C484088B04202DC0020BDE8AD
:10087000F08131462846FFF719FF6748808849F222
:100880004131884211D06448808846F6040188428C
:100890000BD06148808845F21031884205D05E480F
:1008A000808841F66311884203D12E20FFF7C2FEF3
:1008B0000DE05948808845F21051884204D14FF428
:1008C0003850FFF7B7FE02E02220FFF7B3FE524890
:1008D000808849F22031884202D10220FFF7DFFEF2
:1008E000FFF7AFFE04464C48808841F6631188420A
:1008F00001D12046BBE70220FFF7D1FEFFF7A1FEA2
:1009000004464548808849F2413188420BD042482C
:10091000808845F21031884205D03F48808845F2F2
:10092000105188420AD10220FFF7B9FEFFF789FE75
:100930008046E7B24FF6FF7000EA07273648808806
:1009400049F22531884216D03348808844F2355127
:10095000884210D030488088091F88420BD02E482A
:1009600080884BF20551884205D02B4880884CF294
:100970000551884201D1204679E72748808849F20D
:10098000413188420BD02448808845F2103188429A
:1009900005D02148808845F21051884207D1E012E5
:1009A000C002B91240EA411040EAE8205FE7204661
:1009B000FFF768FE5BE700B51748808849F24131D0
:1009C000884211D01448808846F6040188420BD032
:1009D0001148808845F21031884205D00E48808841
:1009E00041F66311884203D12920FFF723FE0FE06F
:1009F0000948808845F21051884204D14FF42450B0
:100A0000FFF718FE04E040F273110720FFF721FE04
:100A100000BD0000FE07006CE801002000B5FD48A5
:100A2000808849F24131884211D0FA48808846F6E0
:100A3000040188420BD0F748808845F21031884283
:100A400005D0F448808841F66311884203D12820FC
:100A5000FFF7F0FD0EE0EF48808845F21051884224
:100A600004D14FF42050FFF7E5FD03E000210720FB
:100A7000FFF7EFFD00BD70B5044600230026E548F2
:100A8000807901280BD1E348808846F6040188422A
:100A900005D0E048808841F66311884208D1DD48DE
:100AA0008079F0B9DB48808841F66311884218D11B
:100AB000082C15D2DFE804F00406080A0C0E101208
:100AC00006240DE007240BE0042409E0052407E0D8
:100AD000012405E0002403E0032401E0022400BF18
:100AE00000BFCC48808849F24131884217D0C948BC
:100AF000808846F60401884211D0C648808845F2B5
:100B0000103188420BD0C348808845F2105188428A
:100B100005D0C048808841F6631188427ED1082CF8
:100B20001CD2DFE804F00406090C0F12151800BFF0
:100B300014E043F0800311E043F040030EE043F083
:100B4000C0030BE043F0200308E043F0600305E03E
:100B500043F0A00302E043F0E00300BF00BFAD4854
:100B6000808845F21051884202D14FF4585600E077
:100B70003626A848808845F2103188420DD0A54815
:100B8000808845F21051884207D0A248808841F6FB
:100B90006311884201D043F008039E48808846F6DE
:100BA0000401884201D143F0020319463046FFF7A1
:100BB00050FD9848808841F6631188421DD003F0AB
:100BC000200068B19348008892494988884214DA25
:100BD0009048058840888F490880084645800CE089
:100BE0008C4800888B494988884206DD89480588F9
:100BF000408888490880084645808648808845F2B4
:100C00001051884254D183494889FFF713FD0020D1
:100C1000FFF713FD7F494989491C00E077E088B25E
:100C2000FFF708FD0020FFF708FD7A494989891C74
:100C300088B2FFF7FFFC77490988491EC1F30F20EE
:100C4000FFF7FBFC73494989C91C88B2FFF7F2FC26
:100C500070490978491EC8B2FFF7EFFC6D498889D1
:100C6000FFF7E8FC0020FFF7E8FC6A498989491C86
:100C700088B2FFF7DFFC0020FFF7DFFC65498989B8
:100C8000891C88B2FFF7D6FC62494988491EC1F326
:100C90000F20FFF7D2FC5F498989C91C88B2FFF792
:100CA000C9FC5C498978491EC8B2FFF7C6FC55E00B
:100CB00058494889FFF7BEFC0020FFF7BEFC002022
:100CC000FFF7BBFC53490988491EC1F30F20FFF70A
:100CD000B4FC50490978491EC8B2FFF7AEFC4D4933
:100CE0008889FFF7A7FC0020FFF7A7FC0020FFF78B
:100CF000A4FC48494988491EC1F30F20FFF79DFC19
:100D000044498978491EC8B2FFF797FC26E0082CB1
:100D10001CD2DFE804F004070A0D0F12151843F087
:100D2000300313E043F0100310E043F020030DE024
:100D300000BF0BE043F0380308E043F0280305E070
:100D400043F0180302E043F0080300BF00BF03268E
:100D500043F4805319463046FFF77BFC70BD30B535
:100D600004460D4629462046FFF7A0FCFFF781FC0C
:100D7000294800882949088030BD30B503460C4613
:100D800015462448808849F24131884205D02148DF
:100D9000808845F21031884214D11E494889FFF7F6
:100DA00049FC1812FFF749FCD8B2FFF746FC194975
:100DB0008889FFF73FFC2012FFF73FFCE0B2FFF706
:100DC0003CFC93E01348808845F21051884227D1BB
:100DD00010494889FFF72EFC1812FFF72EFC0D4929
:100DE0004989491C88B2FFF725FCD8B2FFF725FCDA
:100DF00008498889FFF71EFC2012FFF71EFC0549F1
:100E00008989491C88B2FFF715FCE0B2FFF715FC91
:100E10006CE00000E8010020160000200008006CD3
:100E2000FE48808841F66311884228D1FB488079CA
:100E300020B9FA480088401EC01A83B2F749488991
:100E4000FFF7F8FB1812FFF7F8FBD8B2FFF7F5FB36
:100E50001812FFF7F2FBD8B2FFF7EFFBEF498889D2
:100E6000FFF7E8FB2012FFF7E8FBE0B2FFF7E5FB36
:100E70002012FFF7E2FBE0B2FFF7DFFB36E0E748C6
:100E8000808846F6040188421DD1E4488079012813
:100E900004D1E2480088401EC01A83B2DF49488965
:100EA000FFF7C8FB1812FFF7C8FBD8B2FFF7C5FB66
:100EB000DA498889FFF7BEFB2012FFF7BEFBE0B2DC
:100EC000FFF7BBFB12E0D5488079012804D1D34855
:100ED0000088401EC01A83B2D04948891946FFF7DE
:100EE000B8FBCE4988892146FFF7B3FBCB48008980
:100EF000CB490880881C058030BD704710B504467A
:100F0000012C66D1C5498871F02008804FF4A0708B
:100F100048800846808849F2413188420BD0BF485A
:100F2000808846F60401884205D0BC48808845F296
:100F3000103188421AD12C20B84908812A204881D2
:100F40002B2088810846808846F60401884205D017
:100F5000B248808845F21031884206D14FF4A07023
:100F6000AE4908804FF4F0704880A1E0AB4880881B
:100F700045F21051884210D14FF43050A7490881F2
:100F80004FF4285048814FF42C5088814FF4F07072
:100F900008804FF4487048808AE0A048808841F675
:100FA000631188420DD12C209C4908812B20488157
:100FB0002A2088814FF4F07008804FF448704880F0
:100FC00076E02220954908812020488121208881CF
:100FD0006EE00120914988714FF4A0700880F020E4
:100FE00048800846808849F24131884205D08B48C4
:100FF000808845F21031884207D12C20874908812A
:101000002A2048812B2088813FE08448808846F64A
:101010000401884207D12C20804908812B20488177
:101020002A20888131E07D48808845F2105188422D
:1010300010D14FF43050794908814FF4285048813D
:101040004FF42C5088814FF4487008804FF4F070B2
:1010500048801AE07148808841F6631188420DD1BA
:101060002C206E4908812A2048812B2088814FF44A
:10107000487008804FF4F070488006E022206749ED
:10108000088121204881202088816448808846F694
:101090000401884205D06148808845F210318842B9
:1010A00006D14FF4F0705D4908804FF4A07048807D
:1010B0000020FFF7E0FC10BD2DE9F04F86B004469C
:1010C0000D469046994604EB0800401E86B205EB9B
:1010D0000900401E87B25148808849F24131884258
:1010E00015D04E48808845F2103188420FD04B48C9
:1010F000808846F60401884209D048488079012852
:1011000026D14648808841F66311884220D1434960
:101110004889FFF78FFA2012FFF78FFAE0B2FFF746
:101120008CFA3012FFF789FAF0B2FFF786FA3B49E2
:101130008889FFF77FFA2812FFF77FFAE8B2FFF7F6
:101140007CFA3812FFF779FAF8B2FFF776FABDE0C9
:101150003248808841F66311884234D12F48008894
:10116000A0EB0800001B84B205EB0900401E1FFA2B
:1011700080F92A494889FFF75DFA2012FFF75DFAE6
:10118000E0B2FFF75AFA04EB0801491EC1F30F2041
:10119000FFF753FA04EB0801491EC8B2FFF74DFAF6
:1011A0001E498889FFF746FA2812FFF746FAE8B287
:1011B000FFF743FA4FEA2920FFF73FFA09F0FF0053
:1011C000FFF73BFA82E01548808845F210518842CB
:1011D00049D112494889FFF72DFA2012FFF72DFA5D
:1011E0000E494989491C88B2FFF724FAE0B2FFF79B
:1011F00024FA0A494989891C88B2FFF71BFA301280
:10120000FFF71BFA05494989C91C88B2FFF712FA92
:10121000F0B2FFF712FA0149888903E0E8010020E3
:10122000FE07006CFFF706FA2812FFF706FAFE49E0
:101230008989491C88B2FFF7FDF9E8B2FFF7FDF98B
:10124000F9498989891C88B2FFF7F4F93812FFF748
:10125000F4F9F5498989C91C88B2FFF7EBF9F8B2AE
:10126000FFF7EBF932E0F048807901280ED1AA4669
:10127000BB46ED480088801B401E80B20190EA48C2
:101280000088001B401E80B2009003E0A246B346D7
:101290000195009750200590512004905220039012
:1012A0005320029051460598FFF7D3F95946049808
:1012B000FFF7CFF901990398FFF7CBF9009902984E
:1012C000FFF7C7F929462046FFF7F0F906B0BDE859
:1012D000F08F70B504460026D34805884088454302
:1012E000D148808846F60401884216D1CE488079DC
:1012F000012812D10020CC4988712A2048812B2056
:10130000888100210846FFF7D1F90120C64988717C
:101310002B2048812A20888103E000210846FFF71E
:10132000C5F9FFF7A6F9002602E0C0480480761C44
:10133000AE42FAD370BD00B59FB00121080204F09F
:10134000C0FE01214FF4B47004F0C8FE8020ADF857
:10135000780010208DF87B0003208DF87A001EA9FC
:10136000B34804F0FFFB4CF23370ADF8780018205E
:101370008DF87B0003208DF87A001EA9AD4804F09B
:10138000F1FB4FF68070ADF8780018208DF87B00E7
:1013900003208DF87A001EA9A74804F0E3FB41F270
:1013A0000100ADF8780018208DF87B0003208DF83F
:1013B0007A001EA99E4804F0D5FB01200890002069
:1013C00009900F200A9000200B900C900D900E9029
:1013D0000190029003200390002004900590069055
:1013E000079006200F90002010901190102012906E
:1013F0000020139015901490169017904FF4805081
:101400001890002019904FF480401A9000201B90F3
:1014100008A81C9001A81D900FA804F089F80121CC
:10142000062004F0EDF9322003F0DBFE0020FFF788
:1014300015F97D49888008468088FF280ADB084620
:1014400080884FF6FF71884204D077488088B0F5D5
:10145000134F7CD1D320FFF7EDF8FFF7F2F8724974
:101460008880FFF7EEF870498880FFF7EAF86E4948
:101470008880084680884FF6FF7101EA00206A499B
:101480008880FFF7DEF868498988084366498880C4
:101490000846808849F24131884258D0BF20FFF782
:1014A000C9F8FFF7CEF860498880FFF7CAF85E49AF
:1014B0008880FFF7C6F85C498880FFF7C2F85A4970
:1014C0008880084680884FF6FF7101EA002056495F
:1014D0008880FFF7B6F854498988084352498880C4
:1014E0000846808846F6040188427AD0D420FFF767
:1014F000A1F8FFF7A6F84C498880FFF7A2F84A49FF
:101500008880FFF79EF848498880084680884FF613
:10151000FF7101EA002044498880FFF792F84249B0
:1015200089880843404988800846808845F2103100
:10153000884256D04FF45A40FFF77CF8FFF781F805
:10154000394988804FF45B40FFF774F800E048E0C9
:10155000FFF777F834498880084680884FF6FF7196
:1015600001EA0020304988804FF45C40FFF762F8C0
:10157000FFF767F82C49898808432B49888008467B
:101580008088B0F5004F02D145F21050888026487F
:10159000808845F21051884223D0A120FFF74AF8F5
:1015A000FFF74FF820498880FFF74BF81E498880E5
:1015B000084680884FF6FF7101EA00201A498880AA
:1015C000FFF73FF81849898808431749888008467B
:1015D000808845F26171884203D141F66310124957
:1015E00088801148818815A006F028FF0E48808861
:1015F00049F2413188427DD1CF20FFF71BF800200E
:10160000FFF71BF8C120FFF718F83020FFF715F897
:10161000ED20FFF70FF86420FFF70FF80320FFF726
:101620000CF8122012E00000E80100200008006C15
:10163000002001400014014000180140204C4344A8
:101640002049443A25780D0A00000000FEF7F5FF16
:101650008120FEF7F2FFE820FEF7ECFF8520FEF781
:10166000ECFF1020FEF7E9FF7A20FEF7E6FFCB2023
:10167000FEF7E0FF3920FEF7E0FF2C20FEF7DDFF4C
:101680000020FEF7DAFF3420FEF7D7FF0220FEF736
:10169000D4FFF720FEF7CEFF2020FEF7CEFFEA2092
:1016A000FEF7C8FF0020FEF7C8FF0020FEF7C5FFC9
:1016B000C020FEF7BFFF1B20FEF7BFFFC120FEF7D3
:1016C000B9FF0120FEF7B9FFC520FEF7B3FF3020B8
:1016D000FEF7B3FF3020FEF7B0FFC720FEF7AAFFEA
:1016E000B720FEF7AAFF3620FEF7A4FF4820FEF73A
:1016F000A4FF00E0ACE03A20FEF79CFF5520FEF787
:101700009CFFB120FEF796FF0020FEF796FF1A20FF
:10171000FEF793FFB620FEF78DFF0A20FEF78DFF40
:10172000A220FEF78AFFF220FEF784FF0020FEF7DA
:1017300084FF2620FEF77EFF0120FEF77EFFE020DB
:10174000FEF778FF0F20FEF778FF2A20FEF775FFDF
:101750002820FEF772FF0820FEF76FFF0E20FEF72D
:101760006CFF0820FEF769FF5420FEF766FFA920F2
:10177000FEF763FF4320FEF760FF0A20FEF75DFFE0
:101780000F20FEF75AFF0020FEF757FF0020FEF75C
:1017900054FF0020FEF751FF0020FEF74EFFE1202E
:1017A000FEF748FF0020FEF748FF1520FEF745FF33
:1017B0001720FEF742FF0720FEF73FFF1120FEF73C
:1017C0003CFF0620FEF739FF2B20FEF736FF5620A0
:1017D000FEF733FF3C20FEF730FF0520FEF72DFF1C
:1017E0001020FEF72AFF0F20FEF727FF3F20FEF70D
:1017F00024FF3F20FEF721FF0F20FEF71EFF2B20C6
:10180000FEF718FF0020FEF718FF0020FEF715FF77
:101810000120FEF712FF3F20FEF70FFF2A20FEF700
:1018200009FF0020FEF709FF0020FEF706FF002059
:10183000FEF703FFEF20FEF700FF1120FEF7FAFE90
:10184000782003F0CEFC2920FEF7F4FE03F01DB94A
:10185000FE48808846F6040188427CD11120FEF7BC
:10186000E9FE142003F0BDFCD020FEF7E3FE0720C4
:10187000FEF7E3FE4220FEF7E0FE1D20FEF7DDFE50
:10188000D120FEF7D7FE0020FEF7D7FE1A20FEF784
:10189000D4FE0920FEF7D1FED220FEF7CBFE0120B8
:1018A000FEF7CBFE2220FEF7C8FEC020FEF7C2FEE8
:1018B0001020FEF7C2FE3B20FEF7BFFE0020FEF721
:1018C000BCFE0220FEF7B9FE1120FEF7B6FEC520D1
:1018D000FEF7B0FE0320FEF7B0FEC820FEF7AAFE1A
:1018E0000020FEF7AAFE2520FEF7A7FE2120FEF726
:1018F000A4FE0520FEF7A1FE0020FEF79EFE0A20B2
:10190000FEF79BFE6520FEF798FE2520FEF795FE6C
:101910007720FEF792FE5020FEF78FFE0F20FEF795
:101920008CFE0020FEF789FEF820FEF783FE0120E2
:10193000FEF783FEFE20FEF77DFE0020FEF77DFE13
:101940000220FEF77AFE2020FEF774FE3620FEF716
:1019500071FE082000E02CE0FEF76FFE3A20FEF753
:1019600069FE5520FEF769FE2B20FEF763FE00207E
:10197000FEF763FE0020FEF760FE0120FEF75DFE2D
:101980003F20FEF75AFE2A20FEF754FE0020FEF705
:1019900054FE0020FEF751FE0120FEF74EFEDF2030
:1019A000FEF74BFE782003F01CFC2920FEF742FED8
:1019B0004CE7A648808845F21031884240F07C8789
:1019C000ED20FEF737FE0120FEF737FEFE20FEF782
:1019D00034FEEE20FEF72EFEDE20FEF72EFE212046
:1019E000FEF72BFEF120FEF725FE0120FEF725FE77
:1019F000DF20FEF71FFE1020FEF71FFEC420FEF7BB
:101A000019FE8F20FEF719FEC620FEF713FE0020F8
:101A1000FEF713FEE220FEF710FEE220FEF70DFEB9
:101A2000E220FEF70AFEBF20FEF704FEAA20FEF722
:101A300004FEB020FEF7FEFD0D20FEF7FEFD0020A7
:101A4000FEF7FBFD0D20FEF7F8FD0020FEF7F5FD8B
:101A50001120FEF7F2FD0020FEF7EFFD1920FEF742
:101A6000ECFD0020FEF7E9FD2120FEF7E6FD002059
:101A7000FEF7E3FD2D20FEF7E0FD0020FEF7DDFD83
:101A80003D20FEF7DAFD0020FEF7D7FD5D20FEF7D2
:101A9000D4FD0020FEF7D1FD5D20FEF7CEFD002035
:101AA000FEF7CBFDB120FEF7C5FD8020FEF7C5FD9A
:101AB0000020FEF7C2FD8B20FEF7BFFD0020FEF7E1
:101AC000BCFD9620FEF7B9FD0020FEF7B6FDB22062
:101AD000FEF7B0FD0020FEF7B0FD0020FEF7ADFDE3
:101AE0000220FEF7AAFD0020FEF7A7FD0320FEF767
:101AF000A4FD0020FEF7A1FDB320FEF79BFD002012
:101B0000FEF79BFD0020FEF798FD0020FEF795FDF7
:101B10000020FEF792FD0020FEF78FFD0020FEF76B
:101B20008CFD0020FEF789FD0020FEF786FD0020D9
:101B3000FEF783FD0020FEF780FD0020FEF77DFD0F
:101B40000020FEF77AFD0020FEF777FD0020FEF76B
:101B500074FD0020FEF771FD0020FEF76EFD0020F1
:101B6000FEF76BFD0020FEF768FD0020FEF765FD27
:101B70000020FEF762FD0020FEF75FFD0020FEF76B
:101B80005CFD0020FEF759FD0020FEF756FDB42055
:101B9000FEF750FD8B20FEF750FD0020FEF74DFDB7
:101BA0009620FEF74AFD0020FEF747FDA120FEF734
:101BB00044FD0020FEF741FDB520FEF73BFD02206D
:101BC000FEF73BFD0020FEF738FD0320FEF735FD54
:101BD0000020FEF732FD0420FEF72FFD0020FEF767
:101BE0002CFDB620FEF726FD0020FEF726FD002086
:101BF000FEF723FDB720FEF71DFD0020FEF71DFDBB
:101C00000020FEF71AFD3F20FEF717FD0020FEF72B
:101C100014FD5E20FEF711FD0020FEF70EFD64208E
:101C2000FEF70BFD0020FEF708FD8C20FEF705FDFA
:101C30000020FEF702FDAC20FEF7FFFC0020FEF7BF
:101C4000FCFCDC20FEF7F9FC002001E0E8010020AC
:101C5000FEF7F3FC7020FEF7F0FC0020FEF7EDFC31
:101C60009020FEF7EAFC0020FEF7E7FCEB20FEF7F1
:101C7000E4FC0020FEF7E1FCDC20FEF7DEFC0020A7
:101C8000FEF7DBFCB820FEF7D5FC0020FEF7D5FC04
:101C90000020FEF7D2FC0020FEF7CFFC0020FEF76C
:101CA000CCFC0020FEF7C9FC0020FEF7C6FC00209B
:101CB000FEF7C3FC0020FEF7C0FCBA20FEF7BAFC1A
:101CC0002420FEF7BAFC0020FEF7B7FC0020FEF748
:101CD000B4FC0020FEF7B1FCC120FEF7ABFC2020D5
:101CE000FEF7ABFC0020FEF7A8FC5420FEF7A5FC95
:101CF0000020FEF7A2FCFF20FEF79FFC0020FEF76D
:101D00009CFCC220FEF796FC0A20FEF796FC002001
:101D1000FEF793FC0420FEF790FC0020FEF78DFCFC
:101D2000C320FEF787FC3C20FEF787FC0020FEF76F
:101D300084FC3A20FEF781FC0020FEF77EFC39206F
:101D4000FEF77BFC0020FEF778FC3720FEF775FCE1
:101D50000020FEF772FC3C20FEF76FFC0020FEF72F
:101D60006CFC3620FEF769FC0020FEF766FC322092
:101D7000FEF763FC0020FEF760FC2F20FEF75DFC01
:101D80000020FEF75AFC2C20FEF757FC0020FEF73F
:101D900054FC2920FEF751FC0020FEF74EFC2620C3
:101DA000FEF74BFC0020FEF748FC2420FEF745FC24
:101DB0000020FEF742FC2420FEF73FFC0020FEF747
:101DC0003CFC2320FEF739FC0020FEF736FC3C20CB
:101DD000FEF733FC0020FEF730FC3620FEF72DFC2A
:101DE0000020FEF72AFC3220FEF727FC0020FEF739
:101DF00024FC2F20FEF721FC0020FEF71EFC2C20E7
:101E0000FEF71BFC0020FEF718FC2920FEF715FC4E
:101E10000020FEF712FC2620FEF70FFC0020FEF744
:101E20000CFC2420FEF709FC0020FEF706FC242011
:101E3000FEF703FC0020FEF700FC2320FEF7FDFB6D
:101E40000020FEF7FAFBC420FEF7F4FB6220FEF749
:101E5000F4FB0020FEF7F1FB0520FEF7EEFB00206F
:101E6000FEF7EBFB8420FEF7E8FB0020FEF7E5FB26
:101E7000F020FEF7E2FB0020FEF7DFFB1820FEF764
:101E8000DCFB0020FEF7D9FBA420FEF7D6FB0020E8
:101E9000FEF7D3FB1820FEF7D0FB0020FEF7CDFBAA
:101EA0005020FEF7CAFB0020FEF7C7FB0C20FEF710
:101EB000C4FB0020FEF7C1FB1720FEF7BEFB00208D
:101EC000FEF7BBFB9520FEF7B8FB0020FEF7B5FB45
:101ED000F320FEF7B2FB0020FEF7AFFBE620FEF793
:101EE000ACFB0020FEF7A9FBC520FEF7A3FB3220C8
:101EF000FEF7A3FB0020FEF7A0FB4420FEF79DFBAE
:101F00000020FEF79AFB6520FEF797FB0020FEF706
:101F100094FB7620FEF791FB0020FEF78EFB8820D5
:101F2000FEF78BFB0020FEF788FBC620FEF782FB46
:101F30002020FEF782FB0020FEF77FFB1720FEF734
:101F40007CFB0020FEF779FB0120FEF776FB0020EA
:101F5000FEF773FBC720FEF76DFB0020FEF76DFB5D
:101F60000020FEF76AFB0020FEF767FB0020FEF76B
:101F700064FBC820FEF75EFB0020FEF75EFB00203E
:101F8000FEF75BFB0020FEF758FB0020FEF755FB39
:101F9000C920FEF74FFB0020FEF74FFB0020FEF7A5
:101FA0004CFB0020FEF749FB0020FEF746FB00201B
:101FB000FEF743FB0020FEF740FB0020FEF73DFB51
:101FC0000020FEF73AFB0020FEF737FB0020FEF76B
:101FD00034FB0020FEF731FB0020FEF72EFB002033
:101FE000FEF72BFB0020FEF728FB0020FEF725FB69
:101FF0000020FEF722FBE020FEF71CFB1620FEF778
:102000001CFB0020FEF719FB1C20FEF716FB00202E
:10201000FEF713FB2120FEF710FB0020FEF70DFB5F
:102020003620FEF70AFB0020FEF707FB4620FEF7EE
:1020300004FB0020FEF701FB5220FEF7FEFA002011
:10204000FEF7FBFA6420FEF7F8FA0020FEF7F5FA37
:102050007A20FEF7F2FA0020FEF7EFFA8B20FEF767
:10206000ECFA0020FEF7E9FA9920FEF7E6FA0020E4
:10207000FEF7E3FAA820FEF7E0FA0020FEF7DDFA0B
:10208000B920FEF7DAFA0020FEF7D7FAC420FEF7EF
:10209000D4FA0020FEF7D1FACA20FEF7CEFA0020CB
:1020A000FEF7CBFAD220FEF7C8FA0020FEF7C5FAF9
:1020B000D920FEF7C2FA0020FEF7BFFAE020FEF7B3
:1020C000BCFA0020FEF7B9FAF320FEF7B6FA0020BA
:1020D000FEF7B3FAE120FEF7ADFA1620FEF7ADFAEF
:1020E0000020FEF7AAFA1C20FEF7A7FA0020FEF750
:1020F000A4FA2220FEF7A1FA0020FEF79EFA36206D
:10210000FEF79BFA0020FEF798FA4520FEF795FAB5
:102110000020FEF792FA5220FEF78FFA0020FEF719
:102120008CFA6420FEF789FA0020FEF786FA7A20FE
:10213000FEF783FA0020FEF780FA8B20FEF77DFA87
:102140000020FEF77AFA9920FEF777FA0020FEF7D2
:1021500074FAA820FEF771FA0020FEF76EFAB92093
:10216000FEF76BFA0020FEF768FAC420FEF765FA66
:102170000020FEF762FACA20FEF75FFA0020FEF7A1
:102180005CFAD220FEF759FA0020FEF756FAD82062
:10219000FEF753FA0020FEF750FAE020FEF74DFA62
:1021A0000020FEF74AFAF320FEF747FA0020FEF778
:1021B00044FAE220FEF73EFA0520FEF73EFA002040
:1021C000FEF73BFA0B20FEF738FA0020FEF735FA4F
:1021D0001B20FEF732FA0020FEF72FFA3420FEF71C
:1021E0002CFA0020FEF729FA4420FEF726FA0020F8
:1021F000FEF723FA4F20FEF720FA0020FEF71DFA23
:102200006120FEF71AFA0020FEF717FA7920FEF790
:1022100014FA0020FEF711FA8820FEF70EFA0020CB
:10222000FEF70BFA9720FEF708FA0020FEF705FAF2
:10223000A620FEF702FA0020FEF7FFF9B720FEF70E
:10224000FCF90020FEF7F9F9C220FEF7F6F90020AC
:10225000FEF7F3F9C720FEF7F0F90020FEF7EDF9DD
:10226000D120FEF7EAF90020FEF7E7F9D620FEF7C5
:10227000E4F90020FEF7E1F9DD20FEF7DEF90020A9
:10228000FEF7DBF9F320FEF7D8F90020FEF7D5F9C9
:10229000E320FEF7CFF90520FEF7CFF90020FEF787
:1022A000CCF90A20FEF7C9F90020FEF7C6F91C2078
:1022B000FEF7C3F90020FEF7C0F93320FEF7BDF9A1
:1022C0000020FEF7BAF94420FEF7B7F90020FEF728
:1022D000B4F95020FEF7B1F90020FEF7AEF9622004
:1022E000FEF7ABF90020FEF7A8F97820FEF7A5F974
:1022F0000020FEF7A2F98820FEF79FF90020FEF7E4
:102300009CF99720FEF799F90020FEF796F9A62090
:10231000FEF793F90020FEF790F9B720FEF78DF94C
:102320000020FEF78AF9C220FEF787F90020FEF7A9
:1023300084F9C720FEF781F90020FEF77EF9D1204D
:10234000FEF77BF90020FEF778F9D520FEF775F946
:102350000020FEF772F9DD20FEF76FF90020FEF78E
:102360006CF9F320FEF769F90020FEF766F9E42026
:10237000FEF760F90120FEF760F90020FEF75DF935
:102380000120FEF75AF90020FEF757F90220FEF768
:1023900054F90020FEF751F92A20FEF74EF90020EB
:1023A000FEF74BF93C20FEF748F90020FEF745F90F
:1023B0004B20FEF742F90020FEF73FF95D20FEF7C3
:1023C0003CF90020FEF739F97420FEF736F90020B9
:1023D000FEF733F98420FEF730F90020FEF72DF9DF
:1023E0009320FEF72AF90020FEF727F9A220FEF736
:1023F00024F90020FEF721F9B320FEF71EF9002092
:10240000FEF71BF9BE20FEF718F90020FEF715F9BC
:10241000C420FEF712F90020FEF70FF9CD20FEF7D9
:102420000CF90020FEF709F9D320FEF706F9002089
:10243000FEF703F9DD20FEF700F90020FEF7FDF8B6
:10244000F320FEF7FAF80020FEF7F7F8E520FEF794
:10245000F1F80020FEF7F1F80020FEF7EEF800207A
:10246000FEF7EBF80020FEF7E8F80220FEF7E5F8AB
:102470000020FEF7E2F82920FEF7DFF80020FEF743
:10248000DCF83C20FEF7D9F80020FEF7D6F84B2008
:10249000FEF7D3F80020FEF7D0F85D20FEF7CDF868
:1024A0000020FEF7CAF87420FEF7C7F80020FEF7F8
:1024B000C4F88420FEF7C1F80020FEF7BEF8932090
:1024C000FEF7BBF80020FEF7B8F8A220FEF7B5F83B
:1024D0000020FEF7B2F8B320FEF7AFF80020FEF7B9
:1024E000ACF8BE20FEF7A9F80020FEF7A6F8C4203D
:1024F000FEF7A3F80020FEF7A0F8CD20FEF79DF828
:102500000020FEF79AF8D320FEF797F80020FEF798
:1025100094F8DC20FEF791F80020FEF78EF8F32007
:10252000FEF78BF80020FEF788F8E620FEF782F829
:102530001120FEF782F80020FEF77FF83420FEF726
:102540007CF80020FEF779F85620FEF776F8002098
:10255000FEF773F87620FEF770F80020FEF76DF8AE
:102560007720FEF76AF80020FEF767F86620FEF78E
:1025700064F80020FEF761F88820FEF75EF800207E
:10258000FEF75BF89920FEF758F80020FEF755F8A3
:10259000BB20FEF752F80020FEF74FF89920FEF717
:1025A0004CF80020FEF749F86620FEF746F80020B8
:1025B000FEF743F85520FEF740F80020FEF73DF8FF
:1025C0005520FEF73AF80020FEF737F84520FEF7D1
:1025D00034F80020FEF731F84320FEF72EF80020F3
:1025E000FEF72BF84420FEF728F80020FEF725F828
:1025F000E720FEF71FF83220FEF71FF80020FEF755
:102600001CF85520FEF719F80020FEF716F8762082
:10261000FEF713F80020FEF710F86620FEF70DF81D
:102620000020FEF70AF86720FEF707F80020FEF703
:1026300004F86720FEF701F80020FDF7FEFF872071
:10264000FDF7FBFF0020FDF7F8FF9920FDF7F5FFF0
:102650000020FDF7F2FFBB20FDF7EFFF0020FDF7A4
:10266000ECFF9920FDF7E9FF0020FDF7E6FF77205A
:10267000FDF7E3FF0020FDF7E0FF4420FDF7DDFF5D
:102680000020FDF7DAFF5620FDF7D7FF0020FDF709
:10269000D4FF2320FDF7D1FF0020FDF7CEFF33202C
:1026A000FDF7CBFF0020FDF7C8FF4520FDF7C5FF74
:1026B0000020FDF7C2FFE820FDF7BCFF0020FDF77A
:1026C000BCFF0020FDF7B9FF9920FDF7B6FF002001
:1026D000FDF7B3FF8720FDF7B0FF0020FDF7ADFF4A
:1026E0008820FDF7AAFF0020FDF7A7FF7720FDF760
:1026F000A4FF0020FDF7A1FF6620FDF79EFF00204C
:10270000FDF79BFF8820FDF798FF0020FDF795FF60
:10271000AA20FDF792FF0020FDF78FFFBB20FDF7F9
:102720008CFF0020FDF789FF9920FDF786FF002030
:10273000FDF783FF6620FDF780FF0020FDF77DFF9A
:102740005520FDF77AFF0020FDF777FF5520FDF7B4
:1027500074FF0020FDF771FF4420FDF76EFF00209D
:10276000FDF76BFF4420FDF768FF0020FDF765FFD4
:102770005520FDF762FF0020FDF75FFFE920FDF720
:1027800059FFAA20FDF759FF0020FDF756FF002052
:10279000FDF753FF0020FDF750FF0020FDF74AFF33
:1027A000AA20FDF74AFFCF20FDF744FF0020FDF7E8
:1027B00044FF0020FDF741FF0020FDF73EFF002011
:1027C000FDF73BFF0020FDF738FF0020FDF735FF48
:1027D0000020FDF732FF0020FDF72FFF0020FDF75E
:1027E0002CFF0020FDF729FF0020FDF726FF002029
:1027F000FDF723FF0020FDF720FF0020FDF71DFF60
:102800000020FDF71AFF0020FDF717FF0020FDF75D
:1028100014FFF020FDF70EFF0020FDF70EFF502003
:10282000FDF70BFF0020FDF708FF0020FDF705FF77
:102830000020FDF702FFF320FDF7FCFE0020FDF76E
:10284000FCFEF920FDF7F6FE0620FDF7F6FE10204F
:10285000FDF7F3FE2920FDF7F0FE0020FDF7EDFE69
:102860003A20FDF7E7FE5520FDF7E7FE1120FDF7C2
:10287000E1FE642002F0B5FC2920FDF7DBFE3520E7
:10288000FDF7D8FE0020FDF7D8FE5120FDF7D2FE5F
:10289000FF20FDF7D2FE5320FDF7CCFE2C20FDF7E4
:1028A000CCFE5520FDF7C6FE8220FDF7C6FE2C208B
:1028B000FDF7C0FE02F0E9B8FE48808845F21051ED
:1028C00088427DD155214FF47040FDF7C2FEAA2108
:1028D0004FF20100FDF7BDFE52214FF20200FDF75D
:1028E000B8FE08214FF20300FDF7B3FE01214FF2BD
:1028F0000400FDF7AEFE0D214FF43040FDF7A9FEB8
:102900000D214BF20100FDF7A4FE0D214BF2020058
:10291000FDF79FFE34214FF43640FDF79AFE342137
:102920004BF20160FDF795FE34214BF20260FDF79A
:1029300090FE0D214FF43140FDF78BFE0D214BF23F
:102940000110FDF786FE0D214BF20210FDF781FE0E
:1029500034214FF43740FDF77CFE34214BF20170F7
:10296000FDF777FE34214BF20270FDF772FE002175
:102970004FF43240FDF76DFE00214BF20120FDF7D0
:1029800068FE00214BF20220FDF763FE24214FF484
:102990003840FDF75EFE24214BF60100FDF759FE9D
:1029A00024214BF60200FDF754FE01214FF43F4075
:1029B000FDF74FFE0F214FF43340FDF74AFE00E0D4
:1029C000FDE30F214BF20130FDF743FE0F214BF2E7
:1029D0000230FDF73EFE34214FF43940FDF739FE59
:1029E00034214BF60110FDF734FE34214BF6021072
:1029F000FDF72FFE08214FF43540FDF72AFE082190
:102A00004BF20150FDF725FE08214BF20250FDF775
:102A100020FE03214FF44240FDF71BFE24214FF41A
:102A20003A40FDF716FE24214BF60120FDF711FE7A
:102A300024214BF60220FDF70CFE00214FF43C4010
:102A4000FDF707FE78214BF60140FDF702FE00215D
:102A50004BF60240FDF7FDFD00214FF43D40FDF730
:102A6000F8FD78214BF60150FDF7F3FD00214BF600
:102A70000250FDF7EEFD00214FF43E40FDF7E9FD69
:102A800064214BF60160FDF7E4FD00214FF4514055
:102A9000FDF7DFFD33214DF20110FDF7DAFD0021D6
:102AA0004DF20210FDF7D5FD34214DF20310FDF774
:102AB000D0FD00214DF20410FDF7CBFD3A214DF27F
:102AC0000510FDF7C6FD00214DF20610FDF7C1FD12
:102AD0004A214DF20710FDF7BCFD00214DF2081010
:102AE000FDF7B7FD5C214DF20910FDF7B2FD0021A5
:102AF0004DF20A10FDF7ADFD81214DF20B10FDF7EF
:102B0000A8FD00214DF20C10FDF7A3FDA6214DF20A
:102B10000D10FDF79EFD00214DF20E10FDF799FD01
:102B2000E5214DF20F10FDF794FD01214DF210103B
:102B3000FDF78FFD13214DF21110FDF78AFD0121E4
:102B40004DF21210FDF785FD54214DF21310FDF7E3
:102B500080FD01214DF21410FDF77BFD82214DF225
:102B60001510FDF776FD01214DF21610FDF771FDF0
:102B7000CA214DF21710FDF76CFD02214DF218101D
:102B8000FDF767FD00214DF21910FDF762FD0221EE
:102B90004DF21A10FDF75DFD01214DF21B10FDF7FE
:102BA00058FD02214DF21C10FDF753FD34214DF26A
:102BB0001D10FDF74EFD02214DF21E10FDF749FDDF
:102BC00067214DF21F10FDF744FD02214DF2201048
:102BD000FDF73FFD84214DF22110FDF73AFD022162
:102BE0004DF22210FDF735FDA4214DF22310FDF723
:102BF00030FD02214DF22410FDF72BFDB7214DF2DF
:102C00002510FDF726FD02214DF22610FDF721FDCE
:102C1000CF214DF22710FDF71CFD02214DF22810A7
:102C2000FDF717FDDE214DF22910FDF712FD0221FF
:102C30004DF22A10FDF70DFDF2214DF22B10FDF79C
:102C400008FD02214DF22C10FDF703FDFE214DF28F
:102C50002D10FDF7FEFC03214DF22E10FDF7F9FCBF
:102C600010214DF22F10FDF7F4FC03214DF230102E
:102C7000FDF7EFFC33214DF23110FDF7EAFC0321A3
:102C80004DF23210FDF7E5FC6D214DF23310FDF7EA
:102C9000E0FC00214FF45240FDF7DBFC33214DF204
:102CA0000120FDF7D6FC00214DF20220FDF7D1FCFA
:102CB000342101E0E80100204DF20320FDF7C9FCBA
:102CC00000214DF20420FDF7C4FC3A214DF205200D
:102CD000FDF7BFFC00214DF20620FDF7BAFC4A21AA
:102CE0004DF20720FDF7B5FC00214DF20820FDF75D
:102CF000B0FC5C214DF20920FDF7ABFC00214DF248
:102D00000A20FDF7A6FC81214DF20B20FDF7A1FC66
:102D100000214DF20C20FDF79CFCA6214DF20D2068
:102D2000FDF797FC00214DF20E20FDF792FCE52106
:102D30004DF20F20FDF78DFC01214DF21020FDF723
:102D400088FC13214DF21120FDF783FC01214DF287
:102D50001220FDF77EFC54214DF21320FDF779FC83
:102D600001214DF21420FDF774FC82214DF2152053
:102D7000FDF76FFC01214DF21620FDF76AFCCA2118
:102D80004DF21720FDF765FC02214DF21820FDF7EA
:102D900060FC00214DF21920FDF75BFC02214DF291
:102DA0001A20FDF756FC01214DF21B20FDF751FCC6
:102DB00002214DF21C20FDF74CFC34214DF21D2068
:102DC000FDF747FC02214DF21E20FDF742FC672172
:102DD0004DF21F20FDF73DFC02214DF22020FDF7B2
:102DE00038FC84214DF22120FDF733FC02214DF205
:102DF0002220FDF72EFCA4214DF22320FDF729FC13
:102E000002214DF22420FDF724FCB7214DF22520AC
:102E1000FDF71FFC02214DF22620FDF71AFCCF2101
:102E20004DF22720FDF715FC02214DF22820FDF779
:102E300010FCDE214DF22920FDF70BFC02214DF2A2
:102E40002A20FDF706FCF2214DF22B20FDF701FCB4
:102E500002214DF22C20FDF7FCFBFE214DF22D202E
:102E6000FDF7F7FB03214DF22E20FDF7F2FB1021B9
:102E70004DF22F20FDF7EDFB03214DF23020FDF741
:102E8000E8FB33214DF23120FDF7E3FB03214DF246
:102E90003220FDF7DEFB6D214DF23320FDF7D9FB2B
:102EA00000214FF45340FDF7D4FB33214DF20130A4
:102EB000FDF7CFFB00214DF20230FDF7CAFB3421B4
:102EC0004DF20330FDF7C5FB00214DF20430FDF754
:102ED000C0FB3A214DF20530FDF7BBFB00214DF25E
:102EE0000630FDF7B6FB4A214DF20730FDF7B1FB86
:102EF00000214DF20830FDF7ACFB5C214DF20930AA
:102F0000FDF7A7FB00214DF20A30FDF7A2FB81215E
:102F10004DF20B30FDF79DFB00214DF20C30FDF71B
:102F200098FBA6214DF20D30FDF793FB00214DF2E9
:102F30000E30FDF78EFBE5214DF20F30FDF789FBDA
:102F400001214DF21030FDF784FB13214DF21130B9
:102F5000FDF77FFB01214DF21230FDF77AFB542182
:102F60004DF21330FDF775FB01214DF21430FDF7E2
:102F700070FB82214DF21530FDF76BFB01214DF204
:102F80001630FDF766FBCA214DF21730FDF761FBE5
:102F900002214DF21830FDF75CFB00214DF2193093
:102FA000FDF757FB02214DF21A30FDF752FB0121CC
:102FB0004DF21B30FDF74DFB02214DF21C30FDF7A9
:102FC00048FB34214DF21D30FDF743FB02214DF249
:102FD0001E30FDF73EFB67214DF21F30FDF739FB38
:102FE00002214DF22030FDF734FB84214DF22130D7
:102FF000FDF72FFB02214DF22230FDF72AFBA42121
:103000004DF22330FDF725FB02214DF22430FDF770
:1030100020FBB7214DF22530FDF71BFB02214DF2BD
:103020002630FDF716FBCF214DF22730FDF711FBBF
:1030300002214DF22830FDF70CFBDE214DF2293044
:10304000FDF707FB02214DF22A30FDF702FBF221CA
:103050004DF22B30FDF7FDFA02214DF22C30FDF739
:10306000F8FAFE214DF22D30FDF7F3FA03214DF26F
:103070002E30FDF7EEFA10214DF22F30FDF7E9FA70
:1030800003214DF23030FDF7E4FA33214DF23130B7
:10309000FDF7DFFA03214DF23230FDF7DAFA6D2148
:1030A0004DF23330FDF7D5FA00214FF45440FDF7CF
:1030B000D0FA33214DF20140FDF7CBFA00214DF259
:1030C0000240FDF7C6FA34214DF20340FDF7C1FA84
:1030D00000214DF20440FDF7BCFA3A214DF20540C3
:1030E000FDF7B7FA00214DF20640FDF7B2FA4A218A
:1030F0004DF20740FDF7ADFA00214DF20840FDF713
:10310000A8FA5C214DF20940FDF7A3FA00214DF227
:103110000A40FDF79EFA81214DF20B40FDF799FA26
:1031200000214DF20C40FDF794FAA6214DF20D401E
:10313000FDF78FFA00214DF20E40FDF78AFAE521E6
:103140004DF20F40FDF785FA01214DF21040FDF7D9
:1031500080FA13214DF21140FDF77BFA01214DF267
:103160001240FDF776FA54214DF21340FDF771FA43
:1031700001214DF21440FDF76CFA82214DF2154009
:10318000FDF767FA01214DF21640FDF762FACA21F8
:103190004DF21740FDF75DFA02214DF21840FDF7A0
:1031A00058FA00214DF21940FDF753FA02214DF271
:1031B0001A40FDF74EFA01214DF21B4000E006E3F4
:1031C000FDF747FA02214DF21C40FDF742FA342187
:1031D0004DF21D40FDF73DFA02214DF21E40FDF774
:1031E00038FA67214DF21F40FDF733FA02214DF204
:1031F0002040FDF72EFA84214DF22140FDF729FAF7
:1032000002214DF22240FDF724FAA4214DF2234081
:10321000FDF71FFA02214DF22440FDF71AFAB721FB
:103220004DF22540FDF715FA02214DF22640FDF73B
:1032300010FACF214DF22740FDF70BFA02214DF293
:103240002840FDF706FADE214DF22940FDF701FA8C
:1032500002214DF22A40FDF7FCF9F2214DF22B40FC
:10326000FDF7F7F902214DF22C40FDF7F2F9FE21AE
:103270004DF22D40FDF7EDF903214DF22E40FDF703
:10328000E8F910214DF22F40FDF7E3F903214DF24B
:103290003040FDF7DEF933214DF23140FDF7D9F929
:1032A00003214DF23240FDF7D4F96D214DF2334048
:1032B000FDF7CFF900214FF45540FDF7CAF933214E
:1032C0004DF20150FDF7C5F900214DF20250FDF716
:1032D000C0F934214DF20350FDF7BBF900214DF246
:1032E0000450FDF7B6F93A214DF20550FDF7B1F95A
:1032F00000214DF20650FDF7ACF94A214DF207507E
:10330000FDF7A7F900214DF20850FDF7A2F95C2165
:103310004DF20950FDF79DF900214DF20A50FDF7DD
:1033200098F981214DF20B50FDF793F900214DF2F0
:103330000C50FDF78EF9A6214DF20D50FDF789F9DD
:1033400000214DF20E50FDF784F9E5214DF20F50AA
:10335000FDF77FF901214DF21050FDF77AF91321A5
:103360004DF21150FDF775F901214DF21250FDF7A4
:1033700070F954214DF21350FDF76BF901214DF214
:103380001450FDF766F982214DF21550FDF761F9F1
:1033900001214DF21650FDF75CF9CA214DF217508C
:1033A000FDF757F902214DF21850FDF752F90021AF
:1033B0004DF21950FDF74DF902214DF21A50FDF76B
:1033C00048F901214DF21B50FDF743F902214DF25E
:1033D0001C50FDF73EF934214DF21D50FDF739F92F
:1033E00002214DF21E50FDF734F967214DF21F50B6
:1033F000FDF72FF902214DF22050FDF72AF9842123
:103400004DF22150FDF725F902214DF22250FDF732
:1034100020F9A4214DF22350FDF71BF902214DF2B2
:103420002450FDF716F9B7214DF22550FDF711F99B
:1034300002214DF22650FDF70CF9CF214DF2275015
:10344000FDF707F902214DF22850FDF702F9DE21C0
:103450004DF22950FDF7FDF802214DF22A50FDF7FB
:10346000F8F8F2214DF22B50FDF7F3F802214DF25E
:103470002C50FDF7EEF8FE214DF22D50FDF7E9F846
:1034800003214DF22E50FDF7E4F810214DF22F509C
:10349000FDF7DFF803214DF23050FDF7DAF8332164
:1034A0004DF23150FDF7D5F803214DF23250FDF7C2
:1034B000D0F86D214DF23350FDF7CBF800214FF4D9
:1034C0005640FDF7C6F833214DF20160FDF7C1F813
:1034D00000214DF20260FDF7BCF834214DF203608B
:1034E000FDF7B7F800214DF20460FDF7B2F83A217C
:1034F0004DF20560FDF7ADF800214DF20660FDF7D5
:10350000A8F84A214DF20760FDF7A3F800214DF21B
:103510000860FDF79EF85C214DF20960FDF799F80F
:1035200000214DF20A60FDF794F881214DF20B6005
:10353000FDF78FF800214DF20C60FDF78AF8A62107
:103540004DF20D60FDF785F800214DF20E60FDF79C
:1035500080F8E5214DF20F60FDF77BF801214DF277
:103560001060FDF776F813214DF21160FDF771F848
:1035700001214DF21260FDF76CF854214DF21360F9
:10358000FDF767F801214DF21460FDF762F8822122
:103590004DF21560FDF75DF801214DF21660FDF763
:1035A00058F8CA214DF21760FDF753F802214DF289
:1035B0001860FDF74EF800214DF21960FDF749F84B
:1035C00002214DF21A60FDF744F801214DF21B6013
:1035D000FDF73FF802214DF21C60FDF73AF8342167
:1035E0004DF21D60FDF735F802214DF21E60FDF72A
:1035F00030F867214DF21F60FDF72BF802214DF2E4
:103600002060FDF726F884214DF22160FDF721F8B6
:1036100002214DF22260FDF71CF8A4214DF2236037
:10362000FDF717F802214DF22460FDF712F8B721DB
:103630004DF22560FDF70DF802214DF22660FDF7F1
:1036400008F8CF214DF22760FDF703F802214DF273
:103650002860FCF7FEFFDE214DF22960FCF7F9FF40
:1036600002214DF22A60FCF7F4FFF2214DF22B60AB
:10367000FCF7EFFF02214DF22C60FCF7EAFFFE2180
:103680004DF22D60FCF7E5FF03214DF22E60FCF7B3
:10369000E0FF10214DF22F60FCF7DBFF03214DF21C
:1036A0003060FCF7D6FF33214DF23160FCF7D1FFDB
:1036B00003214DF23260FCF7CCFF6D214DF23360F7
:1036C000FCF7C7FF55214FF47040FCF7C2FFAA2159
:1036D0004FF20100FCF7BDFF52214FF20200FCF750
:1036E000B8FF08214FF20300FCF7B3FF00214FF2AF
:1036F0000400FCF7AEFFCC214FF43140FCF7A9FFEA
:1037000000214BF20110FCF7A4FF05214FF43640D5
:10371000FCF79FFF70214FF43740FCF79AFF7021B0
:103720004BF20170FCF795FF01214FF43840FCF794
:1037300090FF03214BF60100FCF78BFF03214BF6B2
:103740000200FCF786FF03214BF60300FCF781FF24
:1037500002214FF43C40FCF77CFF00214BF6014076
:10376000FCF777FF00214BF60240FCF772FFD021F7
:103770004FF44940FCF76DFF02214CF60110FCF7B5
:1037800068FF50214CF60210FCF763FF50214CF605
:103790000310FCF75EFF50214CF60410FCF759FFB4
:1037A00000214FF45450FCF754FF55214FF468505A
:1037B000FCF74FFF4FF48850FCF73CFF782001F0F6
:1037C000ECFC4FF42450FCF735FF01F05EB9FE48E5
:1037D000808849F2253188427ED147F6F001E52004
:1037E000FCF737FF4FF480710120FCF732FF4FF4F4
:1037F000E0610220FCF72DFF41F230010320FCF7CD
:1038000028FF00210420FCF724FF40F202210820B9
:10381000FCF71FFF00210920FCF71BFF00210A20F5
:10382000FCF717FF00210C20FCF713FF00210D20EF
:10383000FCF70FFF00210F20FCF70BFF00211020E9
:10384000FCF707FF07211120FCF703FF00211220DE
:10385000FCF7FFFE00211320FCF7FBFE00210720F0
:10386000FCF7F7FE41F290611020FCF7F2FE40F207
:1038700027211120FCF7EDFE9D211220FCF7E9FE27
:103880004FF4C8511320FCF7E4FE25212920FCF752
:10389000E0FE0D212B20FCF7DCFE07213020FCF799
:1038A000D8FE40F203313120FCF7D3FE0321322051
:1038B000FCF7CFFE40F206213520FCF7CAFE0821B6
:1038C0003620FCF7C6FE40F206413720FCF7C1FE69
:1038D0004FF44171382000E057E0FCF7BAFE0721B1
:1038E0003920FCF7B6FE40F202613C20FCF7B1FE45
:1038F00008213D20FCF7ADFE00215020FCF7A9FE79
:10390000EF215120FCF7A5FE00215220FCF7A1FE7B
:1039100040F23F115320FCF79CFE4FF427416020FA
:10392000FCF797FE01216120FCF793FE00216A203D
:10393000FCF78FFE00218020FCF78BFE0021812008
:10394000FCF787FE00218220FCF783FE0021832004
:10395000FCF77FFE00218420FCF77BFE0021852000
:10396000FCF777FE10219020FCF773FE4FF4C06146
:103970009220FCF76EFE40F233110720FCF769FE3F
:1039800022210020FCF765FE1FE78F48808849F25E
:10399000283188427ED141F28F01EC20FCF759FE9C
:1039A00041F23421EF20FCF754FE4FF480710120E6
:1039B000FCF74FFE4FF4E0610220FCF74AFE41F2B3
:1039C00030010320FCF745FE00210420FCF741FEF6
:1039D00040F202210820FCF73CFE00210920FCF700
:1039E00038FE00210A20FCF734FE01210C20FCF7F0
:1039F00030FE00210D20FCF72CFE00210F20FCF7EB
:103A000028FE00211020FCF724FE07211120FCF7DE
:103A100020FE00211220FCF71CFE00211320FCF7E1
:103A200018FE01210720FCF714FE322001F0D9FB1B
:103A300041F290411020FCF70CFE40F227211120AA
:103A4000FCF707FE322001F0CCFB8A211220FCF7A4
:103A500000FE322001F0C5FB4FF4D0511320FCF7DB
:103A6000F8FD06212920FCF7F4FD0D212B20FCF7A1
:103A7000F0FD322001F0B5FB00212020FCF7E9FD2C
:103A800000212120FCF7E5FD322001F0AAFB0021F6
:103A9000302000E074E0FCF7DCFD40F204613120EE
:103AA000FCF7D7FD40F205313220FCF7D2FD0021B2
:103AB0003520FCF7CEFD40F609413620FCF7C9FD64
:103AC0004FF401713720FCF7C4FD40F2013138207A
:103AD000FCF7BFFD40F207713920FCF7BAFD002169
:103AE0003C20FCF7B6FD40F60A213D20FCF7B1FD75
:103AF000322001F076FB00215020FCF7AAFDEF21D7
:103B00005120FCF7A6FD00215220FCF7A2FD40F257
:103B10003F115320FCF79DFD4FF427416020FCF737
:103B200098FD01216120FCF794FD00216A20FCF73B
:103B300090FD00218020FCF78CFD00218120FCF706
:103B400088FD00218220FCF784FD00218320FCF702
:103B500080FD00218420FCF77CFD00218520FCF7FE
:103B600078FD10219020FCF774FD4FF4C061922085
:103B7000FCF76FFD40F233110720FCF76AFD24E6E5
:103B80001148808849F2203188427DD100210846C1
:103B9000FCF75FFD4FF480710120FCF75AFD4FF4F4
:103BA000E0610220FCF755FD41F230010320FCF7F3
:103BB00050FD00210420FCF74CFD40F202210820BA
:103BC000FCF747FD002101E0E80100200920FCF797
:103BD00040FD00210A20FCF73CFD01210C20FCF7F0
:103BE00038FD00210D20FCF734FD00210F20FCF7EB
:103BF00030FD322001F0F5FA40F201110720FCF708
:103C000028FD322001F0EDFA4FF486511020FCF728
:103C100020FD07211120FCF71CFD4FF488711220B4
:103C2000FCF717FD4FF430611320FCF712FD002163
:103C30002920FCF70EFD44F210012B20FCF709FDB2
:103C400000215020FCF705FDEF215120FCF701FD7C
:103C500000215220FCF7FDFC40F23F115320FCF7FD
:103C6000F8FC4FF41C516020FCF7F3FC01216120AB
:103C7000FCF7EFFC00216A20FCF7EBFC0021802020
:103C8000FCF7E7FC002100E031E08120FCF7E1FCDB
:103C900000218220FCF7DDFC00218320FCF7D9FC09
:103CA00000218420FCF7D5FC00218520FCF7D1FC05
:103CB00010219020FCF7CDFC00219220FCF7C9FCDC
:103CC00001219320FCF7C5FC4FF488719520FCF787
:103CD000C0FC00219720FCF7BCFC00219820FCF7D9
:103CE000B8FC40F273110720FCF7B3FC6DE5FE4809
:103CF000808849F2313188427DD141F21401E720B8
:103D0000FCF7A7FC4FF480710120FCF7A2FC4FF4F4
:103D100000710220FCF79DFC41F238010320FCF702
:103D200098FC40F202210820FCF793FC00210920B6
:103D3000FCF78FFC00210A20FCF78BFC00210C20F3
:103D4000FCF787FC00210D20FCF783FC00210F20ED
:103D5000FCF77FFC00211020FCF77BFC07211120E1
:103D6000FCF777FC00211220FCF773FC00211320E4
:103D7000FCF76FFCC82001F034FA41F2906110208A
:103D8000FCF767FC40F227211120FCF762FC32208F
:103D900001F027FA0C211220FCF75BFC322001F025
:103DA00020FA4FF400611320FCF753FC1121292065
:103DB000FCF74FFC0B212B20FCF74BFC322001F0D1
:103DC00010FA00212020FCF744FC40F23F11212092
:103DD000FCF73FFC00213020FCF73BFC4FF48371E3
:103DE0003120FCF736FC00213220FCF732FC4FF486
:103DF0000171352000E064E0FCF72BFC41F20A6120
:103E00003620FCF726FC40F207713720FCF721FC36
:103E10004FF483713820FCF71CFC40F20771392005
:103E2000FCF717FC40F202413C20FCF712FC40F684
:103E30000F413D20FCF70DFC00215020FCF709FC50
:103E4000EF215120FCF705FC00215220FCF701FC7A
:103E500040F23F115320FCF7FCFB4FF41C51602053
:103E6000FCF7F7FB01216120FCF7F3FB00216A203E
:103E7000FCF7EFFB00218020FCF7EBFB0021812009
:103E8000FCF7E7FB00218220FCF7E3FB0021832005
:103E9000FCF7DFFB00218420FCF7DBFB0021852001
:103EA000FCF7D7FB10219020FCF7D3FB4FF4C06147
:103EB0009220FCF7CEFB40F233110720FCF7C9FB40
:103EC00083E48948808845F2084188427ED14FF4D6
:103ED00080710120FCF7BDFB4FF4E0610220FCF78C
:103EE000B8FB41F230010320FCF7B3FB00210420B2
:103EF000FCF7AFFB40F207210820FCF7AAFB0021EA
:103F00000920FCF7A6FB00210A20FCF7A2FB0021F8
:103F10000C20FCF79EFB00210D20FCF79AFB0021F2
:103F20000F20FCF796FB142001F05BF941F2B06121
:103F30001020FCF78EFB01211120FCF78AFB0121E8
:103F40001720FCF786FB4FF49C711220FCF781FBD5
:103F50004FF400611320FCF77CFB09212920FCF7BA
:103F600078FB09212A20FCF774FB0021A420FCF730
:103F700070FB00215020FCF76CFBEF215120FCF777
:103F800068FB00215220FCF764FB40F23F115320F4
:103F9000FCF75FFB4FF41C516020FCF75AFB01213A
:103FA0006120FCF756FB00216A20FCF752FB002140
:103FB0008020FCF74EFB00218120FCF74AFB00210A
:103FC0008220FCF746FB0021832000E023E0FCF781
:103FD00040FB00218420FCF73CFB00218520FCF7FE
:103FE00038FB13219020FCF734FB00219220FCF7D2
:103FF00030FB03219320FCF72CFB4FF488719520B4
:10400000FCF727FB40F273110720FCF722FB32205C
:1040100001F0E7F8B8E43448808841F2055188425D
:104020007ED100210720FCF714FB322001F0D9F8E3
:104030004FF48E711220FCF70CFB0121A420FCF739
:1040400008FB0F210820FCF704FB08210A20FCF7DD
:1040500000FB08210D20FCF7FCFA40F2077130202C
:10406000FCF7F7FA07213120FCF7F3FA40F203617D
:104070003220FCF7EEFA4FF4E0613320FCF7E9FA66
:1040800040F202213420FCF7E4FA02213520FCF74B
:10409000E0FA41F60F713620FCF7DBFA40F20771C7
:1040A0003720FCF7D6FA00213820FCF7D2FA00219D
:1040B0003920FCF7CEFA40F207713A20FCF7C9FA32
:1040C00000213B20FCF7C5FA07213C20FCF7C1FA90
:1040D00000213D20FCF7BDFA322001F082F80121D9
:1040E0000720FCF7B6FA01E0E801002001211720C3
:1040F000FCF7AFFA322001F074F84FF4BD511020F4
:10410000FCF7A7FA40F217211120FCF7A2FA4FF4AE
:104110008F711220FCF79DFA4FF47061132000E0BC
:1041200097E0FCF796FA00212A20FCF792FA0A2180
:104130002920FCF78EFA4FF49F711220FCF789FAC0
:1041400000215020FCF785FAEF215120FCF781FA7D
:1041500000215220FCF77DFA40F23F115320FCF77A
:1041600078FA4FF41C516020FCF773FA01216120AA
:10417000FCF76FFA00216A20FCF76BFA002180201F
:10418000FCF767FA00218120FCF763FA0021822006
:10419000FCF75FFA00218320FCF75BFA0021842002
:1041A000FCF757FA00218520FCF753FA13219020E1
:1041B000FCF74FFA4FF440719220FCF74AFA0521C0
:1041C0009320FCF746FA00219520FCF742FA0021E3
:1041D0009720FCF73EFA00219820FCF73AFA4FF4BA
:1041E00080710120FCF735FA4FF4E0610220FCF702
:1041F00030FA41F238010320FCF72BFA00210420A9
:10420000FCF727FA00210C20FCF723FA00210F20ED
:10421000FCF71FFA00212020FCF71BFA00212120C7
:10422000FCF717FA21210720FCF713FA142000F0FD
:10423000D8FF61210720FCF70CFA142000F0D1FF11
:1042400040F273110720FCF704FA142000F0C9FFB4
:1042500095E4FE4880884BF2055188427ED10021CA
:104260000846FCF7F6F900210846FCF7F2F90021B0
:104270000846FCF7EEF900210846FCF7EAF90121AF
:10428000A420FCF7E6F9142000F0ABFF4FF41C511A
:104290006020FCF7DEF940F202210820FCF7D9F992
:1042A0004FF405713020FCF7D4F943F21571312039
:1042B000FCF7CFF940F204613220FCF7CAF940F66E
:1042C00016613320FCF7C5F942F211213420FCF7C6
:1042D000C0F94FF4A8513520FCF7BBF948F207515B
:1042E0003620FCF7B6F941F207413720FCF7B1F967
:1042F00041F203413820FCF7ACF920213920FCF7CA
:10430000A8F91A219020FCF7A4F900211020FCF74D
:10431000A0F907211120FCF79CF900211220FCF7DD
:1043200098F900211320FCF794F9142000F059FFAC
:104330004FF4E6611020FCF78CF940F237111120A0
:10434000FCF787F9142000F04CFF4FF4DC711220C9
:10435000FCF77FF9142000F044FF00E083E04FF405
:1043600070611320FCF775F980212A20FCF771F9A0
:1043700048212920FCF76DF9142000F032FF4FF49A
:1043800080710120FCF765F94FF4E0610220FCF731
:1043900060F941F238010320FCF75BF940F2022199
:1043A0000820FCF756F900210A20FCF752F90021F9
:1043B0000C20FCF74EF900210D20FCF74AF93021C2
:1043C0000E20FCF746F900215020FCF742F9EF21BE
:1043D0005120FCF73EF900215220FCF73AF940F257
:1043E0003F115320FCF735F94FF41C516020FCF7C6
:1043F00030F901216120FCF72CF900216A20FCF73B
:1044000028F911219020FCF724F94FF4C061922083
:10441000FCF71FF940F202419320FCF71AF9022140
:104420009420FCF716F9142000F0DBFE0121072090
:10443000FCF70FF9142000F0D4FE61210720FCF7EF
:1044400008F940F273110720FCF703F9002120203E
:10445000FCF7FFF800212120FCF7FBF822210020C7
:10446000FCF7F7F811E3794880884CF2055188424F
:104470007ED100210846FCF7ECF800210846FCF745
:10448000E8F8142000F0ADFE00210846FCF7E1F842
:1044900000210846FCF7DDF800210846FCF7D9F8B2
:1044A00000210846FCF7D5F80121A420FCF7D1F83B
:1044B000142000F096FE4FF41C516020FCF7C9F860
:1044C00040F606010820FCF7C4F840F203713020E2
:1044D000FCF7BFF801213120FCF7BBF804213220A2
:1044E000FCF7B7F84FF481713320FCF7B2F84FF4C2
:1044F00040713420FCF7ADF840F203113520FCF791
:10450000A8F81F213620FCF7A4F840F203713720E9
:10451000FCF79FF801213820FCF79BF80421392093
:10452000FCF797F815219020FCF793F84FF482617F
:104530001020FCF78EF840F247211120FCF789F893
:104540004FF4DE711220FCF784F84FF46061132001
:10455000FCF77FF8782000F044FE4FF480710120D2
:10456000FCF777F84FF400710220FCF772F800E0D6
:1045700050E041F230010320FCF76BF808210A20DB
:10458000FCF767F800210C20FCF763F820210E20CF
:10459000FCF75FF800210F20FCF75BF800212020DA
:1045A000FCF757F800212120FCF753F83D212A2081
:1045B000FCF74FF8142000F014FE2D212920FCF701
:1045C00048F800215020FCF744F84DF2EF0151204B
:1045D000FCF73FF800215220FCF73BF840F23F1176
:1045E0005320FCF736F800216120FCF732F8002157
:1045F0006A20FCF72EF84FF440719220FCF729F85E
:1046000005219320FCF725F84FF480710720FCF773
:1046100020F83AE20D48808844F2315188427CD13A
:1046200001210020FCF715F80A2000F0DAFD41F224
:1046300028611020FCF70DF80E211220FCF709F874
:1046400040F639211320FCF704F801E0E8010020CE
:104650000A2000F0C6FD40211120FBF7FAFF50218F
:104660001520FBF7F6FF0A2000F0BBFD1E211220EB
:10467000FBF7EFFF0A2000F0B4FD4FF4B15110201A
:10468000FBF7E7FF42F639211320FBF7E2FF0A2090
:1046900000F0A7FD4FF480710120FBF7DAFF4FF423
:1046A00040710220FBF7D5FF41F238010320FBF7F0
:1046B000D0FF40F202210820FBF7CBFF08210A209F
:1046C000FBF7C7FF00213020FBF7C3FF40F2024198
:1046D0003120FBF7BEFF4FF483713220FBF7B9FFA7
:1046E00040F203513320FBF7B4FF4FF482713420C2
:1046F000FBF7AFFF40F201313520FBF7AAFF40F294
:1047000007713620FBF7A5FF40F205313720FBF794
:10471000A0FF4FF40271382000E040E0FBF799FF62
:1047200040F60B713920FBF794FF02214120FBF783
:1047300090FF4FF41C516020FBF78BFF012161209B
:10474000FBF787FF4FF404719020FBF782FF4FF4D3
:1047500085719220FBF77DFF04219320FBF779FF01
:104760004FF48071A020FBF774FF01210720FBF7B5
:1047700070FF21210720FBF76CFF23210720FBF7A7
:1047800068FF33210720FBF764FF40F23311072055
:10479000FBF75FFF0021A020FBF75BFF75E1F74807
:1047A000808844F2355188427ED130211520FBF7B4
:1047B00050FF10219A20FBF74CFF20211120FBF71E
:1047C00048FF43F228411020FBF743FF022112204B
:1047D000FBF73FFF41F238011320FBF73AFF282097
:1047E00000F0FFFC12210846FBF733FF282000F001
:1047F000F8FC43F220411020FBF72BFF43F2380175
:104800001320FBF726FF462000F0EBFC00213020B0
:10481000FBF71FFF40F202413120FBF71AFF40F285
:1048200007313220FBF715FF4FF441713320FBF7BE
:1048300010FF04213420FBF70CFF40F2014135202A
:10484000FBF707FF40F207713620FBF702FF40F24B
:1048500005313720FBF7FDFE4FF4C2613820FBF72E
:10486000F8FE4FF4C2613920FBF7F3FE4FF480717C
:104870000120FBF7EEFE4FF440710220FBF7E9FE4A
:1048800041F230010320FBF7E4FE40F60801082066
:10489000FBF7DFFE08210A20FBF7DBFE4FF41C517B
:1048A0006020FBF7D6FE00E031E001216120FBF73C
:1048B000D0FE4FF49F719020FBF7CBFE4FF4807138
:1048C0009220FBF7C6FE4FF480719320FBF7C1FEE8
:1048D0004FF44051A020FBF7BCFE1021A320FBF7B2
:1048E000B8FE01210720FBF7B4FE21210720FBF7CA
:1048F000B0FE23210720FBF7ACFE33210720FBF796
:10490000A8FE40F233110720FBF7A3FEBDE09B4851
:10491000808841F663118842F8D1E220FBF78AFED5
:104920001D20FBF78AFE0220FBF787FE0420FBF721
:1049300084FE642000F031FCE020FBF77BFE0120C8
:10494000FBF77BFE0A2000F04CFCE020FBF772FE38
:104950000320FBF772FE0C2000F043FC0120FBF764
:1049600069FE0A2000F03DFCE620FBF763FE2F20E5
:10497000FBF763FEFF20FBF760FEFF20FBF75DFE09
:10498000B020FBF757FE2020FBF757FE0020FBF777
:1049900054FE0320FBF751FE40F21F30FBF74DFEA3
:1049A0000120FBF74AFE40F2DF10FBF746FE002035
:1049B000FBF743FEB420FBF73DFE0420FBF73DFE72
:1049C00040F21F40FBF739FE0020FBF736FE2E2099
:1049D000FBF733FE0020FBF730FE0020FBF72DFE37
:1049E0000020FBF72AFE0020FBF727FEB620FBF78E
:1049F00021FE0220FBF721FE4FF40370FBF71DFEA2
:104A00000020FBF71AFE1720FBF717FE1520FBF717
:104A100014FE0020FBF711FE0020FBF70EFEF02035
:104A2000FBF708FE0320FBF708FE2920FBF702FE38
:104A3000D020FBF7FFFD0020FBF7FFFDBE20FBF7BA
:104A4000F9FD0520FBF7F9FDFE20FBF7F6FD01203F
:104A5000FBF7F3FD0020FBF7F0FD0020FBF7EDFD79
:104A60000020FBF7EAFDB820FBF7E4FD0320FBF78D
:104A7000E4FD0120FBF7E1FDBA20FBF7DBFD01209F
:104A8000FBF7DBFD6420FCF738FA0020FCF736FA70
:104A900001203B4908604FF6FF70FCF71AFC1FB07D
:104AA00000BD2DE9FC4F05460E4617469846DDF839
:104AB0002C90002001903148808846F604018842FD
:104AC00029D12E488079012825D1AB4635462B487F
:104AD0000088C01B401E86B2474628480088A0EBCD
:104AE0000B00401E1FFA80F80020244988712A20FC
:104AF00048812B20888143463A4631462846CDF8E6
:104B00000090FFF7CEFF01201C4988712B204881BF
:104B10002A2088811CE0781B401C80B2019034461A
:104B200014E021462846FBF7C1FDFBF7A2FD4FF03C
:104B3000000A06E01348A0F800900AF101001FFAED
:104B400080FA01988245F5DB601C84B24445E8DDBB
:104B5000BDE8FC8F2DE9F84F07460D469046994673
:104B6000DDF828B0A8EB0700401C1FFA80FAA9EB7B
:104B70000500401C80B2009000241AE0E8010020EB
:104B80009C0124420008006C281981B23846FBF7CA
:104B90008DFDFBF76EFD002607E004FB0A603BF885
:104BA0001000FC490880701C86B25645F5DB601C7D
:104BB00084B200988442E7DBBDE8F88F2DE9FF4F0F
:104BC00084B081468A460020039002900698A0EBAC
:104BD00009050798A0EB0A06CDF80490CDF800A0CF
:104BE000002D01DD012705E00DB9002702E04FF09F
:104BF000FF376D42002E02DD4FF0010806E016B9C6
:104C00004FF0000802E04FF0FF387642B54201DD78
:104C10002C4600E034464FF0000B21E0009A91B2A0
:104C2000019A90B2FCF79BF80398284403900298ED
:104C3000304402900398A04205DD0398001B0390C6
:104C40000198384401900298A04205DD0298001BAB
:104C500002900098404400900BF101001FFA80FB85
:104C6000601C8345DADD08B0BDE8F08FF0B504467E
:104C70000D4616461F462B46324629462046FFF76C
:104C80009DFF3B46224629462046FFF797FF3B46BD
:104C9000324639462046FFF791FF3B4632462946C9
:104CA0003046FFF78BFFF0BD2DE9F04306460F4677
:104CB0009046002445460320A0EB48093CE07A1BBF
:104CC00091B2321990B2FCF74AF83A1B91B27219BC
:104CD00090B2FCF744F83A1991B2721990B2FCF70D
:104CE0003EF87A1991B2321990B2FCF738F87A1975
:104CF00091B2321B90B2FCF732F83A1991B2721BA2
:104D000090B2FCF72CF87A1B91B2321B90B2FCF7F0
:104D100026F83A1B91B2721B90B2FCF720F8641C83
:104D2000B9F1000F03DAA000801D814404E0601B8C
:104D300080000A3081446D1EAC42C0DDBDE8F083C6
:104D40002DE9F84F80460F4616461C46BB462046C6
:104D5000E31704EB5373DB1021464FEAE47C04EBCA
:104D60005C7C4FEAEC0CA4EBCC0CBCF1000F02D045
:104D70004FF0010C01E04FF0000C6344224604EBBD
:104D8000D27C4FEA6C0C03FB0CF3DBB20093A6F170
:104D90002000C6B200255EE00C2C07D106EB4600D1
:104DA0007D4901EB800010F805901BE0102C05D127
:104DB0007A4800EB061010F8059013E0182C07D184
:104DC00006EBC600764901EB800010F8059009E07B
:104DD000302C05D1734800EB062010F8059001E057
:104DE000BDE8F88F4FF0000A2FE009F0800030B1E5
:104DF0006D48028839464046FBF7BFFF07E00A9836
:104E000028B96A48028839464046FBF7B6FF4FEAA0
:104E100049604FEA1069781C87B265484088B842FB
:104E200000DCDDE7A7EB0B00A0420AD15F4608F1EA
:104E300001001FFA80F85E480088404500DCCFE79B
:104E400006E00AF1010000F0FF0ABAF1080FCCDB1E
:104E500000BF681CC5B2009885429DDB00BFBFE75C
:104E600010B50246012000E050430B1EA1F10104E1
:104E7000E1B2F9D110BD2DE9FF4F81B0074691464F
:104E80001E460E9D4FF0000A002439E0301B401EE4
:104E9000C1B20A20FFF7E4FFB9FBF0F00A21B0FB32
:104EA000F1F201FB1208BAF1000F16D1701EA042F8
:104EB00013DDB8F1000F0ED10020AB4605EBDB711E
:104EC000491001FB0471009088B22B462022029900
:104ED000FFF736FF12E04FF0010A0020AB4605EB6A
:104EE000DB71491001FB0471009088B208F13001B8
:104EF000CAB22B460299FFF723FF00BF601CC4B261
:104F0000B442C3DB05B0BDE8F08F2DE9FF4F82B09E
:104F1000064692461F46DDE90F4800200190002515
:104F20005EE0781B401EC1B20A20FFF799FFBAFB72
:104F3000F0F00A21B0FBF1F201FB1209019840BB2D
:104F4000781EA84238DDB9F1000F33D108F0800097
:104F500078B108F00100A34604EBDB71491001FBB6
:104F60000561009088B2234630220399FFF7E8FEDE
:104F70000EE008F00100A34604EBDB71491001FBD1
:104F80000561009088B2234620220399FFF7D8FEDE
:104F900024E011E00008006C36890008AA8D0008A2
:104FA0009A930008F6A000081600002018000020C0
:104FB000E80100200120019008F00100A34604EB65
:104FC000DB71491001FB0561009088B209F13001E5
:104FD000CAB223460399FFF7B3FE00BF681CC5B2EF
:104FE000BD429EDB06B0BDE8F08F2DE9F8470446D0
:104FF0000D4690469946DDE9096704F0FF0A08EB83
:1050000004001FFA80F809EB05001FFA80F916E08A
:10501000444502DB5446A81985B24D4500DB14E037
:10502000002000903A78334629462046FFF788FE54
:10503000304606EBD07104EB61018CB27F1C3878EE
:105040007E2802DC38782028E2DA00BFBDE8F88745
:1050500000B597B0012140F2E11001F03FF80121C5
:10506000080201F02EF84FF63370ADF8000018205A
:105070008DF8030003208DF802006946364800F0E1
:1050800071FD4FF68370ADF800006946334800F0BB
:1050900069FD4FF23F00ADF800006946304800F06E
:1050A00061FD40F23F40ADF8000069462D4800F038
:1050B00059FD0020019002900320039000200490ED
:1050C00005900690079004200890002009900A900F
:1050D00010200B9000200C900E900D900F901090CF
:1050E0004FF480501190002012901390149001A85A
:1050F0001590169008A800F01BFA0121042000F07A
:105100007FFB17B000BD10B506E004784FF0D04328
:105110005C54891C401C521E002AF6D110BD06E0CA
:105120004FF0D0435B5C00F8013B891C521E002A03
:10513000F6D1704713B50C46012221466846FFF7A9
:10514000E2FF1CBD18B50446012221466846FFF760
:10515000E6FF9DF8000018BD001401400018014052
:10516000001C01400020014010B56FF0040000F069
:1051700074F92E4800682E49B0FBF1F02D490870F3
:105180000846007800EB4001C1EBC0104FF6FF71FC
:1051900001EAC0002849088010BD0146254A12785E
:1051A0004A434FF0E0235A6100229A611A4612697D
:1051B00042F001021A6100BF4FF0E022106900F0D6
:1051C00001021AB100F48032002AF5D04FF0E0223B
:1051D000126922F001024FF0E0231A6100229A6165
:1051E00070470146144A12884A434FF0E0235A613F
:1051F00000229A611A46126942F001021A6100BF48
:105200004FF0E022106900F001021AB100F4803280
:10521000002AF5D04FF0E022126922F001024FF08F
:10522000E0231A6100229A6170470000000000200C
:1052300000127A001A0000201C000020014600BF66
:10524000704700BF494A128802F04002002AF9D094
:10525000C2B2464B1B1D1A80704710B586B004467B
:10526000012144F2040000F039FF4FF40070ADF862
:10527000140003208DF8160018208DF8170005A9DA
:105280003B4800F06FFC4FF48060ADF81400042040
:105290008DF8170005A9364800F064FC25208DF82C
:1052A000000003208DF801008DF8020001208DF828
:1052B0000300684600F087F801940020ADF808006C
:1052C000ADF80A00ADF80C00ADF810000C20ADF8F8
:1052D0000E0001A9254800F0A8FF012240F2255147
:1052E000224801F03AF80121204801F02AF806B0DE
:1052F00010BD10B540F225511C4801F013F910B350
:105300001A4801F08FF8C4B21A48008800F400402F
:10531000C8B91848008800F4804060B10A2C03D056
:1053200000201449088020E01248008840F4004022
:105330001049088019E00D2C06D10E48008840F471
:1053400080400C49088010E00A480088C0F30D0036
:1053500009490C5407480088401C06490880084643
:105360000088C72801DD0020088010BD00380140FA
:105370000008014024000020F60100200948804771
:1053800009480047FEE7FEE7FEE7FEE7FEE7FEE727
:10539000FEE7FEE7FEE7FEE704480549054A064B3F
:1053A00070470000EB0300083101000820AD002029
:1053B00020B3002020AF002020AF0020314901435E
:1053C000314A1160704770B5002100230F22C47864
:1053D00004B32D4C246804F4E064C4F5E064210AAD
:1053E000C1F10403CA40447804FA03F184781440FC
:1053F00021430901254C0678A155047804F01F05C6
:105400000124AC4005786D11AD0005F1E025C5F82B
:10541000004109E0047804F01F050124AC401C4D54
:105420000678761145F8264070BD1A4A0A400243B4
:10543000154B1B1F1A60704739B1134A121D1268B1
:105440000243114B1B1D1A6006E00F4A121D126821
:1054500082430D4B1B1D1A607047042808D14FF082
:10546000E021096941F004014FF0E022116107E0F9
:105470004FF0E021096921F004014FF0E0221161B1
:10548000704700000000FA050CED00E000E400E0C9
:1054900080E100E080FFFF1F30B943F2DB028100B2
:1054A000A1F1C0410A6005E043F2D2028100A1F1FE
:1054B000C0410A606FF07042411C8900A1F1C041F7
:1054C0000A608100A1F1C041C1F804217047102891
:1054D0000AD118214FF020421166402151664FF049
:1054E000FC319166D16610E01821F74A1160402125
:1054F0004FF02042C2F884104FF0FC31F24A0832DB
:1055000011604FF02042C2F88C1070471820EE490D
:105510002031086000200906C1F8A4004FF0FC30DB
:10552000E94928310860091D0860091D08607047B5
:10553000D0E901121143C268114302691143426963
:10554000114382691143C2691143026A1143426ADD
:105550001143826A1143C26A1143026B114302680C
:105560009200A2F1C0421160816808290BD1016844
:105570008900A1F1C041096841F040020168890039
:10558000A1F1C0410A60416B0968426B526841EA6F
:105590000211426B926841EA0221426B928941EA10
:1055A0000241426B128A41EA0251426B127D41EA8A
:1055B0000261426B926911430268521C9200A2F18F
:1055C000C0421160C16AB1F5804F1BD1816B09687F
:1055D000826B526841EA0211826B926841EA0221B1
:1055E000826B128A41EA0251826B127D41EA0261AA
:1055F000826B9269114302689200A2F1C042C2F824
:10560000041107E06FF0704201688900A1F1C04108
:10561000C1F80421704730B50021002200234468FE
:1056200044F0080485682C43C5682C4305692C4365
:10563000456944EA4524856944EA4531C4692468DA
:10564000C5696D6844EA0524C5692D8944EA0544A5
:10565000C5692D7B44EA0562046A2468056A6D68A1
:1056600044EA0524056A2D8944EA0544056A2D7B30
:1056700044EA05630468102C05D14FF020442166EC
:10568000A266E36608E0904C21604FF02044C4F825
:1056900088208D4C0C34236030BD016841F010012E
:1056A000426841EA4221826841EA4231864A203218
:1056B0001160C1680968C268526841EA0221C26883
:1056C000128941EA0241C268127B41EA02617E4AC4
:1056D00028321160016909680269526841EA0221B1
:1056E0000269128941EA02410269127B41EA0261C0
:1056F000754A2C321160416909684269526841EA71
:1057000002214269128941EA02414269127B41EA5F
:1057100002614FF02042C2F8B010704700210160D2
:105720000221416000218160C160016141618161AC
:10573000C16101624FF480514162490081620021E0
:10574000C16201630F21426B1160426B5160FF2106
:10575000426B91600F21426BD160426B1161426BD1
:1057600051610021426B91610F21826B1160826B4C
:105770005160FF21826B91600F21826BD160826B3F
:105780001161826B51610021826B91617047102120
:105790000160002141608160C160016141618161FE
:1057A000FC21C2691160C2695160C2699160C2691D
:1057B000D160026A1160026A5160026A9160026AF5
:1057C000D16070470021016041608160FC21C268A6
:1057D0001160C2685160C2689160C268D16002699C
:1057E000116002695160026991600269D160426989
:1057F000116042695160426991604269D1607047AD
:1058000051B18200A2F1C042126842F0010382004D
:10581000A2F1C042136009E08200A2F1C042126806
:105820002A4B1A408300A3F1C0431A60704799B114
:10583000102808D14FF02042126E42F004024FF0BF
:1058400020431A661DE0204A126842F004024FF01D
:105850002043C3F8802014E0102809D14FF02042E3
:10586000126E1A4BDB1E1A404FF020431A6608E0F6
:10587000154A1268154BDB1E1A404FF02043C3F83F
:105880008020704748B110492031096841F0040177
:105890004FF02042C2F8A01009E00B4920310968FE
:1058A0000A4AD21E11404FF02042C2F8A0107047A1
:1058B000B9B110280CD14FF02042126E42F04002D4
:1058C0004FF020431A661FE0800000A0FEFF0F008B
:1058D000724A126842F040024FF02043C3F8802021
:1058E00012E0102808D14FF02042126E6C4B1A4083
:1058F0004FF020431A6607E0684A1268684B1A4066
:105900004FF02043C3F88020704701460020102943
:1059100003D14FF02042506F02E0604A1432106809
:10592000704710B5F2B1102807D14FF020435B6EDD
:105930000B434FF02044636632E0B0F5807F08D11E
:10594000564B1B1D1B680B434FF02044C4F884309A
:1059500026E0524B24331B680B434FF02044C4F81D
:10596000A4301DE0102807D14FF020435B6E8B431D
:105970004FF02044636613E0B0F5807F08D1474BB9
:105980001B1D1B688B434FF02044C4F8843007E094
:10599000424B24331B688B434FF02044C4F8A4309F
:1059A00010BD10B5024600200023102A03D14FF08D
:1059B0002044636E09E0B2F5807F03D1374C241D8B
:1059C000236802E0354C2434236803EA01040CB157
:1059D000012000E0002010BD102807D14FF0204228
:1059E000526E8A434FF020435A6613E0B0F5807F31
:1059F00008D12A4A121D12688A434FF02043C3F887
:105A0000842007E0254A243212688A434FF020435D
:105A1000C3F8A420704770B502460020002300247C
:105A20000025102A03D14FF02046736E09E0B2F52D
:105A3000807F03D1194E361D336802E0174E24369D
:105A4000336803EA010403EAD10514B10DB1012062
:105A500000E0002070BD102808D14FF02042526EA7
:105A600022EAD1024FF020435A6615E0B0F5807F5C
:105A700009D10A4A121D126822EAD1024FF02043CE
:105A8000C3F8842008E0054A2432126822EAD102D1
:105A90004FF02043C3F8A42070470000800000A00E
:105AA000BFFF0F0010B50446CC48844208D1012145
:105AB000042000F02DFB0021042000F029FB46E02B
:105AC000C748844208D10121082000F021FB0021B1
:105AD000082000F01DFB3AE0C248844208D10121B1
